{
  "contractName": "MarketPlace",
  "abi": [
    {
      "inputs": [],
      "stateMutability": "nonpayable",
      "type": "constructor"
    },
    {
      "anonymous": false,
      "inputs": [
        {
          "indexed": true,
          "internalType": "address",
          "name": "owner",
          "type": "address"
        },
        {
          "indexed": true,
          "internalType": "address",
          "name": "approved",
          "type": "address"
        },
        {
          "indexed": true,
          "internalType": "uint256",
          "name": "tokenId",
          "type": "uint256"
        }
      ],
      "name": "Approval",
      "type": "event"
    },
    {
      "anonymous": false,
      "inputs": [
        {
          "indexed": true,
          "internalType": "address",
          "name": "owner",
          "type": "address"
        },
        {
          "indexed": true,
          "internalType": "address",
          "name": "operator",
          "type": "address"
        },
        {
          "indexed": false,
          "internalType": "bool",
          "name": "approved",
          "type": "bool"
        }
      ],
      "name": "ApprovalForAll",
      "type": "event"
    },
    {
      "anonymous": false,
      "inputs": [
        {
          "indexed": true,
          "internalType": "address",
          "name": "previousOwner",
          "type": "address"
        },
        {
          "indexed": true,
          "internalType": "address",
          "name": "newOwner",
          "type": "address"
        }
      ],
      "name": "OwnershipTransferred",
      "type": "event"
    },
    {
      "anonymous": false,
      "inputs": [
        {
          "indexed": true,
          "internalType": "address",
          "name": "from",
          "type": "address"
        },
        {
          "indexed": true,
          "internalType": "address",
          "name": "to",
          "type": "address"
        },
        {
          "indexed": true,
          "internalType": "uint256",
          "name": "tokenId",
          "type": "uint256"
        }
      ],
      "name": "Transfer",
      "type": "event"
    },
    {
      "anonymous": false,
      "inputs": [
        {
          "indexed": false,
          "internalType": "address",
          "name": "tokenon",
          "type": "address"
        },
        {
          "indexed": false,
          "internalType": "uint256",
          "name": "payout",
          "type": "uint256"
        },
        {
          "indexed": false,
          "internalType": "address",
          "name": "tokencre",
          "type": "address"
        },
        {
          "indexed": false,
          "internalType": "uint256",
          "name": "reg",
          "type": "uint256"
        },
        {
          "indexed": false,
          "internalType": "address",
          "name": "mpowner",
          "type": "address"
        },
        {
          "indexed": false,
          "internalType": "uint256",
          "name": "gains",
          "type": "uint256"
        }
      ],
      "name": "buyed",
      "type": "event"
    },
    {
      "inputs": [],
      "name": "_tokenIds",
      "outputs": [
        {
          "internalType": "uint256",
          "name": "_value",
          "type": "uint256"
        }
      ],
      "stateMutability": "view",
      "type": "function",
      "constant": true
    },
    {
      "inputs": [
        {
          "internalType": "address",
          "name": "to",
          "type": "address"
        },
        {
          "internalType": "uint256",
          "name": "tokenId",
          "type": "uint256"
        }
      ],
      "name": "approve",
      "outputs": [],
      "stateMutability": "nonpayable",
      "type": "function"
    },
    {
      "inputs": [
        {
          "internalType": "address",
          "name": "owner",
          "type": "address"
        }
      ],
      "name": "balanceOf",
      "outputs": [
        {
          "internalType": "uint256",
          "name": "",
          "type": "uint256"
        }
      ],
      "stateMutability": "view",
      "type": "function",
      "constant": true
    },
    {
      "inputs": [],
      "name": "baseTokenURI",
      "outputs": [
        {
          "internalType": "string",
          "name": "",
          "type": "string"
        }
      ],
      "stateMutability": "view",
      "type": "function",
      "constant": true
    },
    {
      "inputs": [],
      "name": "contractOwner",
      "outputs": [
        {
          "internalType": "address",
          "name": "",
          "type": "address"
        }
      ],
      "stateMutability": "view",
      "type": "function",
      "constant": true
    },
    {
      "inputs": [
        {
          "internalType": "uint256",
          "name": "tokenId",
          "type": "uint256"
        }
      ],
      "name": "getApproved",
      "outputs": [
        {
          "internalType": "address",
          "name": "",
          "type": "address"
        }
      ],
      "stateMutability": "view",
      "type": "function",
      "constant": true
    },
    {
      "inputs": [
        {
          "internalType": "address",
          "name": "owner",
          "type": "address"
        },
        {
          "internalType": "address",
          "name": "operator",
          "type": "address"
        }
      ],
      "name": "isApprovedForAll",
      "outputs": [
        {
          "internalType": "bool",
          "name": "",
          "type": "bool"
        }
      ],
      "stateMutability": "view",
      "type": "function",
      "constant": true
    },
    {
      "inputs": [],
      "name": "nTokenOnSale",
      "outputs": [
        {
          "internalType": "uint256",
          "name": "",
          "type": "uint256"
        }
      ],
      "stateMutability": "view",
      "type": "function",
      "constant": true
    },
    {
      "inputs": [],
      "name": "name",
      "outputs": [
        {
          "internalType": "string",
          "name": "",
          "type": "string"
        }
      ],
      "stateMutability": "view",
      "type": "function",
      "constant": true
    },
    {
      "inputs": [],
      "name": "owner",
      "outputs": [
        {
          "internalType": "address",
          "name": "",
          "type": "address"
        }
      ],
      "stateMutability": "view",
      "type": "function",
      "constant": true
    },
    {
      "inputs": [
        {
          "internalType": "uint256",
          "name": "tokenId",
          "type": "uint256"
        }
      ],
      "name": "ownerOf",
      "outputs": [
        {
          "internalType": "address",
          "name": "",
          "type": "address"
        }
      ],
      "stateMutability": "view",
      "type": "function",
      "constant": true
    },
    {
      "inputs": [],
      "name": "renounceOwnership",
      "outputs": [],
      "stateMutability": "nonpayable",
      "type": "function"
    },
    {
      "inputs": [
        {
          "internalType": "address",
          "name": "from",
          "type": "address"
        },
        {
          "internalType": "address",
          "name": "to",
          "type": "address"
        },
        {
          "internalType": "uint256",
          "name": "tokenId",
          "type": "uint256"
        }
      ],
      "name": "safeTransferFrom",
      "outputs": [],
      "stateMutability": "nonpayable",
      "type": "function"
    },
    {
      "inputs": [
        {
          "internalType": "address",
          "name": "from",
          "type": "address"
        },
        {
          "internalType": "address",
          "name": "to",
          "type": "address"
        },
        {
          "internalType": "uint256",
          "name": "tokenId",
          "type": "uint256"
        },
        {
          "internalType": "bytes",
          "name": "_data",
          "type": "bytes"
        }
      ],
      "name": "safeTransferFrom",
      "outputs": [],
      "stateMutability": "nonpayable",
      "type": "function"
    },
    {
      "inputs": [
        {
          "internalType": "address",
          "name": "operator",
          "type": "address"
        },
        {
          "internalType": "bool",
          "name": "approved",
          "type": "bool"
        }
      ],
      "name": "setApprovalForAll",
      "outputs": [],
      "stateMutability": "nonpayable",
      "type": "function"
    },
    {
      "inputs": [
        {
          "internalType": "bytes4",
          "name": "interfaceId",
          "type": "bytes4"
        }
      ],
      "name": "supportsInterface",
      "outputs": [
        {
          "internalType": "bool",
          "name": "",
          "type": "bool"
        }
      ],
      "stateMutability": "view",
      "type": "function",
      "constant": true
    },
    {
      "inputs": [],
      "name": "symbol",
      "outputs": [
        {
          "internalType": "string",
          "name": "",
          "type": "string"
        }
      ],
      "stateMutability": "view",
      "type": "function",
      "constant": true
    },
    {
      "inputs": [
        {
          "internalType": "uint256",
          "name": "index",
          "type": "uint256"
        }
      ],
      "name": "tokenByIndex",
      "outputs": [
        {
          "internalType": "uint256",
          "name": "",
          "type": "uint256"
        }
      ],
      "stateMutability": "view",
      "type": "function",
      "constant": true
    },
    {
      "inputs": [
        {
          "internalType": "address",
          "name": "owner",
          "type": "address"
        },
        {
          "internalType": "uint256",
          "name": "index",
          "type": "uint256"
        }
      ],
      "name": "tokenOfOwnerByIndex",
      "outputs": [
        {
          "internalType": "uint256",
          "name": "",
          "type": "uint256"
        }
      ],
      "stateMutability": "view",
      "type": "function",
      "constant": true
    },
    {
      "inputs": [
        {
          "internalType": "uint256",
          "name": "tokenId",
          "type": "uint256"
        }
      ],
      "name": "tokenURI",
      "outputs": [
        {
          "internalType": "string",
          "name": "",
          "type": "string"
        }
      ],
      "stateMutability": "view",
      "type": "function",
      "constant": true
    },
    {
      "inputs": [
        {
          "internalType": "uint256",
          "name": "",
          "type": "uint256"
        }
      ],
      "name": "tokensData",
      "outputs": [
        {
          "internalType": "uint256",
          "name": "price",
          "type": "uint256"
        },
        {
          "internalType": "string",
          "name": "data",
          "type": "string"
        },
        {
          "internalType": "bool",
          "name": "onSale",
          "type": "bool"
        },
        {
          "internalType": "uint256",
          "name": "tokenID",
          "type": "uint256"
        },
        {
          "internalType": "address",
          "name": "creator",
          "type": "address"
        }
      ],
      "stateMutability": "view",
      "type": "function",
      "constant": true
    },
    {
      "inputs": [],
      "name": "totalSupply",
      "outputs": [
        {
          "internalType": "uint256",
          "name": "",
          "type": "uint256"
        }
      ],
      "stateMutability": "view",
      "type": "function",
      "constant": true
    },
    {
      "inputs": [
        {
          "internalType": "address",
          "name": "from",
          "type": "address"
        },
        {
          "internalType": "address",
          "name": "to",
          "type": "address"
        },
        {
          "internalType": "uint256",
          "name": "tokenId",
          "type": "uint256"
        }
      ],
      "name": "transferFrom",
      "outputs": [],
      "stateMutability": "nonpayable",
      "type": "function"
    },
    {
      "inputs": [
        {
          "internalType": "address",
          "name": "newOwner",
          "type": "address"
        }
      ],
      "name": "transferOwnership",
      "outputs": [],
      "stateMutability": "nonpayable",
      "type": "function"
    },
    {
      "inputs": [
        {
          "internalType": "string",
          "name": "_baseTokenURI",
          "type": "string"
        }
      ],
      "name": "setBaseTokenURI",
      "outputs": [],
      "stateMutability": "nonpayable",
      "type": "function"
    },
    {
      "inputs": [
        {
          "internalType": "address",
          "name": "receptor",
          "type": "address"
        },
        {
          "internalType": "string",
          "name": "metadata",
          "type": "string"
        },
        {
          "internalType": "uint256",
          "name": "price",
          "type": "uint256"
        },
        {
          "internalType": "address",
          "name": "creator",
          "type": "address"
        }
      ],
      "name": "mint",
      "outputs": [
        {
          "internalType": "uint256",
          "name": "",
          "type": "uint256"
        }
      ],
      "stateMutability": "nonpayable",
      "type": "function"
    },
    {
      "inputs": [
        {
          "internalType": "address",
          "name": "to",
          "type": "address"
        },
        {
          "internalType": "uint256",
          "name": "tokenId",
          "type": "uint256"
        }
      ],
      "name": "transferNFT",
      "outputs": [
        {
          "internalType": "address",
          "name": "",
          "type": "address"
        }
      ],
      "stateMutability": "nonpayable",
      "type": "function"
    },
    {
      "inputs": [
        {
          "internalType": "uint256",
          "name": "tokenid",
          "type": "uint256"
        },
        {
          "internalType": "uint256",
          "name": "price",
          "type": "uint256"
        }
      ],
      "name": "resell",
      "outputs": [],
      "stateMutability": "nonpayable",
      "type": "function"
    },
    {
      "inputs": [
        {
          "internalType": "uint256",
          "name": "tokenid",
          "type": "uint256"
        }
      ],
      "name": "hideNFTFromMarketplace",
      "outputs": [],
      "stateMutability": "nonpayable",
      "type": "function"
    },
    {
      "inputs": [],
      "name": "listAllNFTs",
      "outputs": [
        {
          "components": [
            {
              "internalType": "uint256",
              "name": "price",
              "type": "uint256"
            },
            {
              "internalType": "string",
              "name": "data",
              "type": "string"
            },
            {
              "internalType": "bool",
              "name": "onSale",
              "type": "bool"
            },
            {
              "internalType": "uint256",
              "name": "tokenID",
              "type": "uint256"
            },
            {
              "internalType": "address",
              "name": "creator",
              "type": "address"
            }
          ],
          "internalType": "struct MarketPlace.tokenData[]",
          "name": "",
          "type": "tuple[]"
        }
      ],
      "stateMutability": "view",
      "type": "function",
      "constant": true
    },
    {
      "inputs": [
        {
          "internalType": "uint256",
          "name": "tokenId",
          "type": "uint256"
        }
      ],
      "name": "buyNFT",
      "outputs": [],
      "stateMutability": "payable",
      "type": "function",
      "payable": true
    },
    {
      "inputs": [
        {
          "internalType": "address",
          "name": "owner",
          "type": "address"
        }
      ],
      "name": "tokensOf",
      "outputs": [
        {
          "components": [
            {
              "internalType": "uint256",
              "name": "price",
              "type": "uint256"
            },
            {
              "internalType": "string",
              "name": "data",
              "type": "string"
            },
            {
              "internalType": "bool",
              "name": "onSale",
              "type": "bool"
            },
            {
              "internalType": "uint256",
              "name": "tokenID",
              "type": "uint256"
            },
            {
              "internalType": "address",
              "name": "creator",
              "type": "address"
            }
          ],
          "internalType": "struct MarketPlace.tokenData[]",
          "name": "",
          "type": "tuple[]"
        }
      ],
      "stateMutability": "view",
      "type": "function",
      "constant": true
    },
    {
      "inputs": [
        {
          "internalType": "uint256",
          "name": "_token",
          "type": "uint256"
        }
      ],
      "name": "getItemInfo",
      "outputs": [
        {
          "components": [
            {
              "internalType": "uint256",
              "name": "price",
              "type": "uint256"
            },
            {
              "internalType": "string",
              "name": "data",
              "type": "string"
            },
            {
              "internalType": "bool",
              "name": "onSale",
              "type": "bool"
            },
            {
              "internalType": "uint256",
              "name": "tokenID",
              "type": "uint256"
            },
            {
              "internalType": "address",
              "name": "creator",
              "type": "address"
            }
          ],
          "internalType": "struct MarketPlace.tokenData[]",
          "name": "",
          "type": "tuple[]"
        }
      ],
      "stateMutability": "view",
      "type": "function",
      "constant": true
    }
  ],
  "bytecode": "0x60806040523480156200001157600080fd5b506040518060400160405280600b81526020017f4d61726b6574506c6163650000000000000000000000000000000000000000008152506040518060400160405280600381526020017f4d5045000000000000000000000000000000000000000000000000000000000081525081600090805190602001906200009692919062000219565b508060019080519060200190620000af92919062000219565b505050620000d2620000c66200014b60201b60201c565b6200015360201b60201c565b33600c60006101000a81548173ffffffffffffffffffffffffffffffffffffffff021916908373ffffffffffffffffffffffffffffffffffffffff1602179055506040518060600160405280602d8152602001620055c6602d9139600e90805190602001906200014492919062000219565b506200032e565b600033905090565b6000600a60009054906101000a900473ffffffffffffffffffffffffffffffffffffffff16905081600a60006101000a81548173ffffffffffffffffffffffffffffffffffffffff021916908373ffffffffffffffffffffffffffffffffffffffff1602179055508173ffffffffffffffffffffffffffffffffffffffff168173ffffffffffffffffffffffffffffffffffffffff167f8be0079c531659141344cd1fd0a4f28419497f9722a3daafe3b4186f6b6457e060405160405180910390a35050565b8280546200022790620002c9565b90600052602060002090601f0160209004810192826200024b576000855562000297565b82601f106200026657805160ff191683800117855562000297565b8280016001018555821562000297579182015b828111156200029657825182559160200191906001019062000279565b5b509050620002a69190620002aa565b5090565b5b80821115620002c5576000816000905550600101620002ab565b5090565b60006002820490506001821680620002e257607f821691505b60208210811415620002f957620002f8620002ff565b5b50919050565b7f4e487b7100000000000000000000000000000000000000000000000000000000600052602260045260246000fd5b615288806200033e6000396000f3fe6080604052600436106101ee5760003560e01c806370a082311161010d578063b88d4fde116100a0578063de7fe3e71161006f578063de7fe3e71461072e578063e0f5d38f1461076b578063e985e9c514610794578063edc6fb6d146107d1578063f2fde38b1461080e576101ee565b8063b88d4fde14610672578063c87b56dd1461069b578063ce606ee0146106d8578063d547cfb714610703576101ee565b806394ab67fe116100dc57806394ab67fe146105b657806395d89b41146105f3578063a22cb4651461061e578063aa46a40014610647576101ee565b806370a082311461050c578063715018a61461054957806381ebc2c8146105605780638da5cb5b1461058b576101ee565b806330176e131161018557806351ed82881161015457806351ed828814610435578063599ed3ff146104515780635a3f2672146104925780636352211e146104cf576101ee565b806330176e131461037b5780633fe97648146103a457806342842e0e146103cf5780634f6ccce7146103f8576101ee565b806318160ddd116101c157806318160ddd146102c157806323b872dd146102ec57806328cfac8a146103155780632f745c591461033e576101ee565b806301ffc9a7146101f357806306fdde0314610230578063081812fc1461025b578063095ea7b314610298575b600080fd5b3480156101ff57600080fd5b5061021a60048036038101906102159190613a27565b610837565b6040516102279190614222565b60405180910390f35b34801561023c57600080fd5b506102456108b1565b604051610252919061423d565b60405180910390f35b34801561026757600080fd5b50610282600480360381019061027d9190613aba565b610943565b60405161028f9190614138565b60405180910390f35b3480156102a457600080fd5b506102bf60048036038101906102ba91906139eb565b6109c8565b005b3480156102cd57600080fd5b506102d6610ae0565b6040516102e391906145bf565b60405180910390f35b3480156102f857600080fd5b50610313600480360381019061030e919061386a565b610aed565b005b34801561032157600080fd5b5061033c60048036038101906103379190613ae3565b610b4d565b005b34801561034a57600080fd5b50610365600480360381019061036091906139eb565b610c6c565b60405161037291906145bf565b60405180910390f35b34801561038757600080fd5b506103a2600480360381019061039d9190613a79565b610d11565b005b3480156103b057600080fd5b506103b9610da7565b6040516103c691906145bf565b60405180910390f35b3480156103db57600080fd5b506103f660048036038101906103f1919061386a565b610dad565b005b34801561040457600080fd5b5061041f600480360381019061041a9190613aba565b610dcd565b60405161042c91906145bf565b60405180910390f35b61044f600480360381019061044a9190613aba565b610e64565b005b34801561045d57600080fd5b5061047860048036038101906104739190613aba565b611172565b6040516104899594939291906145da565b60405180910390f35b34801561049e57600080fd5b506104b960048036038101906104b49190613805565b61125d565b6040516104c69190614200565b60405180910390f35b3480156104db57600080fd5b506104f660048036038101906104f19190613aba565b611521565b6040516105039190614138565b60405180910390f35b34801561051857600080fd5b50610533600480360381019061052e9190613805565b6115d3565b60405161054091906145bf565b60405180910390f35b34801561055557600080fd5b5061055e61168b565b005b34801561056c57600080fd5b50610575611713565b6040516105829190614200565b60405180910390f35b34801561059757600080fd5b506105a0611941565b6040516105ad9190614138565b60405180910390f35b3480156105c257600080fd5b506105dd60048036038101906105d891906139eb565b61196b565b6040516105ea9190614138565b60405180910390f35b3480156105ff57600080fd5b50610608611a3f565b604051610615919061423d565b60405180910390f35b34801561062a57600080fd5b5061064560048036038101906106409190613934565b611ad1565b005b34801561065357600080fd5b5061065c611ae7565b60405161066991906145bf565b60405180910390f35b34801561067e57600080fd5b50610699600480360381019061069491906138b9565b611af3565b005b3480156106a757600080fd5b506106c260048036038101906106bd9190613aba565b611b55565b6040516106cf919061423d565b60405180910390f35b3480156106e457600080fd5b506106ed611bfc565b6040516106fa9190614138565b60405180910390f35b34801561070f57600080fd5b50610718611c22565b604051610725919061423d565b60405180910390f35b34801561073a57600080fd5b5061075560048036038101906107509190613aba565b611cb0565b6040516107629190614200565b60405180910390f35b34801561077757600080fd5b50610792600480360381019061078d9190613aba565b611eb4565b005b3480156107a057600080fd5b506107bb60048036038101906107b6919061382e565b611fbf565b6040516107c89190614222565b60405180910390f35b3480156107dd57600080fd5b506107f860048036038101906107f39190613970565b612053565b60405161080591906145bf565b60405180910390f35b34801561081a57600080fd5b5061083560048036038101906108309190613805565b612210565b005b60007f780e9d63000000000000000000000000000000000000000000000000000000007bffffffffffffffffffffffffffffffffffffffffffffffffffffffff1916827bffffffffffffffffffffffffffffffffffffffffffffffffffffffff191614806108aa57506108a982612308565b5b9050919050565b6060600080546108c090614973565b80601f01602080910402602001604051908101604052809291908181526020018280546108ec90614973565b80156109395780601f1061090e57610100808354040283529160200191610939565b820191906000526020600020905b81548152906001019060200180831161091c57829003601f168201915b5050505050905090565b600061094e826123ea565b61098d576040517f08c379a00000000000000000000000000000000000000000000000000000000081526004016109849061441f565b60405180910390fd5b6004600083815260200190815260200160002060009054906101000a900473ffffffffffffffffffffffffffffffffffffffff169050919050565b60006109d382611521565b90508073ffffffffffffffffffffffffffffffffffffffff168373ffffffffffffffffffffffffffffffffffffffff161415610a44576040517f08c379a0000000000000000000000000000000000000000000000000000000008152600401610a3b9061449f565b60405180910390fd5b8073ffffffffffffffffffffffffffffffffffffffff16610a63612456565b73ffffffffffffffffffffffffffffffffffffffff161480610a925750610a9181610a8c612456565b611fbf565b5b610ad1576040517f08c379a0000000000000000000000000000000000000000000000000000000008152600401610ac89061439f565b60405180910390fd5b610adb838361245e565b505050565b6000600880549050905090565b610afe610af8612456565b82612517565b610b3d576040517f08c379a0000000000000000000000000000000000000000000000000000000008152600401610b349061451f565b60405180910390fd5b610b488383836125f5565b505050565b3373ffffffffffffffffffffffffffffffffffffffff16610b6d83611521565b73ffffffffffffffffffffffffffffffffffffffff1614610bc3576040517f08c379a0000000000000000000000000000000000000000000000000000000008152600401610bba9061435f565b60405180910390fd5b60008111610c06576040517f08c379a0000000000000000000000000000000000000000000000000000000008152600401610bfd9061459f565b60405180910390fd5b6001600f600084815260200190815260200160002060020160006101000a81548160ff02191690831515021790555080600f600084815260200190815260200160002060000181905550600d6000815480929190610c63906149d6565b91905055505050565b6000610c77836115d3565b8210610cb8576040517f08c379a0000000000000000000000000000000000000000000000000000000008152600401610caf9061425f565b60405180910390fd5b600660008473ffffffffffffffffffffffffffffffffffffffff1673ffffffffffffffffffffffffffffffffffffffff168152602001908152602001600020600083815260200190815260200160002054905092915050565b610d19612456565b73ffffffffffffffffffffffffffffffffffffffff16610d37611941565b73ffffffffffffffffffffffffffffffffffffffff1614610d8d576040517f08c379a0000000000000000000000000000000000000000000000000000000008152600401610d849061443f565b60405180910390fd5b80600e9080519060200190610da39291906135e2565b5050565b600d5481565b610dc883838360405180602001604052806000815250611af3565b505050565b6000610dd7610ae0565b8210610e18576040517f08c379a0000000000000000000000000000000000000000000000000000000008152600401610e0f9061455f565b60405180910390fd5b60088281548110610e52577f4e487b7100000000000000000000000000000000000000000000000000000000600052603260045260246000fd5b90600052602060002001549050919050565b600f6000828152602001908152602001600020600001543414610ebc576040517f08c379a0000000000000000000000000000000000000000000000000000000008152600401610eb3906144ff565b60405180910390fd5b600f600082815260200190815260200160002060020160009054906101000a900460ff16610f1f576040517f08c379a0000000000000000000000000000000000000000000000000000000008152600401610f16906144bf565b60405180910390fd5b6000610f2a82611521565b90506000600f600084815260200190815260200160002060040160009054906101000a900473ffffffffffffffffffffffffffffffffffffffff169050610f728233856125f5565b60006064600434610f8391906147cf565b610f8d919061479e565b905060006064600234610fa091906147cf565b610faa919061479e565b905060006064605e34610fbd91906147cf565b610fc7919061479e565b90508473ffffffffffffffffffffffffffffffffffffffff166108fc829081150290604051600060405180830381858888f1935050505015801561100f573d6000803e3d6000fd5b508373ffffffffffffffffffffffffffffffffffffffff166108fc849081150290604051600060405180830381858888f19350505050158015611056573d6000803e3d6000fd5b50600c60009054906101000a900473ffffffffffffffffffffffffffffffffffffffff1673ffffffffffffffffffffffffffffffffffffffff166108fc839081150290604051600060405180830381858888f193505050501580156110bf573d6000803e3d6000fd5b506000600f600088815260200190815260200160002060020160006101000a81548160ff0219169083151502179055507f9807fa6f24647ef19ec84fc7bb996baf689482b0f06c12da73db00397b68205385828686600c60009054906101000a900473ffffffffffffffffffffffffffffffffffffffff168760405161114a96959493929190614153565b60405180910390a1600d600081548092919061116590614949565b9190505550505050505050565b600f60205280600052604060002060009150905080600001549080600101805461119b90614973565b80601f01602080910402602001604051908101604052809291908181526020018280546111c790614973565b80156112145780601f106111e957610100808354040283529160200191611214565b820191906000526020600020905b8154815290600101906020018083116111f757829003601f168201915b5050505050908060020160009054906101000a900460ff16908060030154908060040160009054906101000a900473ffffffffffffffffffffffffffffffffffffffff16905085565b6060600061126a836115d3565b905060008114156112f7578067ffffffffffffffff8111156112b5577f4e487b7100000000000000000000000000000000000000000000000000000000600052604160045260246000fd5b6040519080825280602002602001820160405280156112ee57816020015b6112db613668565b8152602001906001900390816112d35790505b5091505061151c565b60008167ffffffffffffffff811115611339577f4e487b7100000000000000000000000000000000000000000000000000000000600052604160045260246000fd5b60405190808252806020026020018201604052801561137257816020015b61135f613668565b8152602001906001900390816113575790505b50905060005b8281101561151557600f600061138e8784610c6c565b81526020019081526020016000206040518060a0016040529081600082015481526020016001820180546113c190614973565b80601f01602080910402602001604051908101604052809291908181526020018280546113ed90614973565b801561143a5780601f1061140f5761010080835404028352916020019161143a565b820191906000526020600020905b81548152906001019060200180831161141d57829003601f168201915b505050505081526020016002820160009054906101000a900460ff16151515158152602001600382015481526020016004820160009054906101000a900473ffffffffffffffffffffffffffffffffffffffff1673ffffffffffffffffffffffffffffffffffffffff1673ffffffffffffffffffffffffffffffffffffffff16815250508282815181106114f7577f4e487b7100000000000000000000000000000000000000000000000000000000600052603260045260246000fd5b6020026020010181905250808061150d906149d6565b915050611378565b5080925050505b919050565b6000806002600084815260200190815260200160002060009054906101000a900473ffffffffffffffffffffffffffffffffffffffff169050600073ffffffffffffffffffffffffffffffffffffffff168173ffffffffffffffffffffffffffffffffffffffff1614156115ca576040517f08c379a00000000000000000000000000000000000000000000000000000000081526004016115c1906143df565b60405180910390fd5b80915050919050565b60008073ffffffffffffffffffffffffffffffffffffffff168273ffffffffffffffffffffffffffffffffffffffff161415611644576040517f08c379a000000000000000000000000000000000000000000000000000000000815260040161163b906143bf565b60405180910390fd5b600360008373ffffffffffffffffffffffffffffffffffffffff1673ffffffffffffffffffffffffffffffffffffffff168152602001908152602001600020549050919050565b611693612456565b73ffffffffffffffffffffffffffffffffffffffff166116b1611941565b73ffffffffffffffffffffffffffffffffffffffff1614611707576040517f08c379a00000000000000000000000000000000000000000000000000000000081526004016116fe9061443f565b60405180910390fd5b611711600061285c565b565b60606000611721600b612922565b905060008167ffffffffffffffff811115611765577f4e487b7100000000000000000000000000000000000000000000000000000000600052604160045260246000fd5b60405190808252806020026020018201604052801561179e57816020015b61178b613668565b8152602001906001900390816117835790505b50905060005b8281101561193857600f60008281526020019081526020016000206040518060a0016040529081600082015481526020016001820180546117e490614973565b80601f016020809104026020016040519081016040528092919081815260200182805461181090614973565b801561185d5780601f106118325761010080835404028352916020019161185d565b820191906000526020600020905b81548152906001019060200180831161184057829003601f168201915b505050505081526020016002820160009054906101000a900460ff16151515158152602001600382015481526020016004820160009054906101000a900473ffffffffffffffffffffffffffffffffffffffff1673ffffffffffffffffffffffffffffffffffffffff1673ffffffffffffffffffffffffffffffffffffffff168152505082828151811061191a577f4e487b7100000000000000000000000000000000000000000000000000000000600052603260045260246000fd5b60200260200101819052508080611930906149d6565b9150506117a4565b50809250505090565b6000600a60009054906101000a900473ffffffffffffffffffffffffffffffffffffffff16905090565b6000611976826123ea565b6119b5576040517f08c379a00000000000000000000000000000000000000000000000000000000081526004016119ac9061457f565b60405180910390fd5b6119be82611521565b73ffffffffffffffffffffffffffffffffffffffff163373ffffffffffffffffffffffffffffffffffffffff1614611a2b576040517f08c379a0000000000000000000000000000000000000000000000000000000008152600401611a229061437f565b60405180910390fd5b611a36338484610dad565b82905092915050565b606060018054611a4e90614973565b80601f0160208091040260200160405190810160405280929190818152602001828054611a7a90614973565b8015611ac75780601f10611a9c57610100808354040283529160200191611ac7565b820191906000526020600020905b815481529060010190602001808311611aaa57829003601f168201915b5050505050905090565b611ae3611adc612456565b8383612930565b5050565b600b8060000154905081565b611b04611afe612456565b83612517565b611b43576040517f08c379a0000000000000000000000000000000000000000000000000000000008152600401611b3a9061451f565b60405180910390fd5b611b4f84848484612a9d565b50505050565b6060611b60826123ea565b611b9f576040517f08c379a0000000000000000000000000000000000000000000000000000000008152600401611b969061445f565b60405180910390fd5b6000611ba9612af9565b90506000815111611bc95760405180602001604052806000815250611bf4565b80611bd384612b8b565b604051602001611be4929190614114565b6040516020818303038152906040525b915050919050565b600c60009054906101000a900473ffffffffffffffffffffffffffffffffffffffff1681565b600e8054611c2f90614973565b80601f0160208091040260200160405190810160405280929190818152602001828054611c5b90614973565b8015611ca85780601f10611c7d57610100808354040283529160200191611ca8565b820191906000526020600020905b815481529060010190602001808311611c8b57829003601f168201915b505050505081565b60606000600167ffffffffffffffff811115611cf5577f4e487b7100000000000000000000000000000000000000000000000000000000600052604160045260246000fd5b604051908082528060200260200182016040528015611d2e57816020015b611d1b613668565b815260200190600190039081611d135790505b509050600f60008481526020019081526020016000206040518060a001604052908160008201548152602001600182018054611d6990614973565b80601f0160208091040260200160405190810160405280929190818152602001828054611d9590614973565b8015611de25780601f10611db757610100808354040283529160200191611de2565b820191906000526020600020905b815481529060010190602001808311611dc557829003601f168201915b505050505081526020016002820160009054906101000a900460ff16151515158152602001600382015481526020016004820160009054906101000a900473ffffffffffffffffffffffffffffffffffffffff1673ffffffffffffffffffffffffffffffffffffffff1673ffffffffffffffffffffffffffffffffffffffff168152505081600081518110611ea0577f4e487b7100000000000000000000000000000000000000000000000000000000600052603260045260246000fd5b602002602001018190525080915050919050565b3373ffffffffffffffffffffffffffffffffffffffff16611ed482611521565b73ffffffffffffffffffffffffffffffffffffffff1614611f2a576040517f08c379a0000000000000000000000000000000000000000000000000000000008152600401611f219061447f565b60405180910390fd5b611f34600b612922565b8110611f75576040517f08c379a0000000000000000000000000000000000000000000000000000000008152600401611f6c906144df565b60405180910390fd5b6000600f600083815260200190815260200160002060020160006101000a81548160ff021916908315150217905550600d6000815480929190611fb790614949565b919050555050565b6000600560008473ffffffffffffffffffffffffffffffffffffffff1673ffffffffffffffffffffffffffffffffffffffff16815260200190815260200160002060008373ffffffffffffffffffffffffffffffffffffffff1673ffffffffffffffffffffffffffffffffffffffff16815260200190815260200160002060009054906101000a900460ff16905092915050565b6000600c60009054906101000a900473ffffffffffffffffffffffffffffffffffffffff1673ffffffffffffffffffffffffffffffffffffffff163373ffffffffffffffffffffffffffffffffffffffff16146120e5576040517f08c379a00000000000000000000000000000000000000000000000000000000081526004016120dc9061453f565b60405180910390fd5b60006120f1600b612922565b90506120fd600b612d38565b6121078682612d4e565b84600f600083815260200190815260200160002060010190805190602001906121319291906135e2565b5083600f6000838152602001908152602001600020600001819055506001600f600083815260200190815260200160002060020160006101000a81548160ff02191690831515021790555080600f60008381526020019081526020016000206003018190555082600f600083815260200190815260200160002060040160006101000a81548173ffffffffffffffffffffffffffffffffffffffff021916908373ffffffffffffffffffffffffffffffffffffffff160217905550600d60008154809291906121ff906149d6565b919050555080915050949350505050565b612218612456565b73ffffffffffffffffffffffffffffffffffffffff16612236611941565b73ffffffffffffffffffffffffffffffffffffffff161461228c576040517f08c379a00000000000000000000000000000000000000000000000000000000081526004016122839061443f565b60405180910390fd5b600073ffffffffffffffffffffffffffffffffffffffff168173ffffffffffffffffffffffffffffffffffffffff1614156122fc576040517f08c379a00000000000000000000000000000000000000000000000000000000081526004016122f39061429f565b60405180910390fd5b6123058161285c565b50565b60007f80ac58cd000000000000000000000000000000000000000000000000000000007bffffffffffffffffffffffffffffffffffffffffffffffffffffffff1916827bffffffffffffffffffffffffffffffffffffffffffffffffffffffff191614806123d357507f5b5e139f000000000000000000000000000000000000000000000000000000007bffffffffffffffffffffffffffffffffffffffffffffffffffffffff1916827bffffffffffffffffffffffffffffffffffffffffffffffffffffffff1916145b806123e357506123e282612f28565b5b9050919050565b60008073ffffffffffffffffffffffffffffffffffffffff166002600084815260200190815260200160002060009054906101000a900473ffffffffffffffffffffffffffffffffffffffff1673ffffffffffffffffffffffffffffffffffffffff1614159050919050565b600033905090565b816004600083815260200190815260200160002060006101000a81548173ffffffffffffffffffffffffffffffffffffffff021916908373ffffffffffffffffffffffffffffffffffffffff160217905550808273ffffffffffffffffffffffffffffffffffffffff166124d183611521565b73ffffffffffffffffffffffffffffffffffffffff167f8c5be1e5ebec7d5bd14f71427d1e84f3dd0314c0f7b2291e5b200ac8c7c3b92560405160405180910390a45050565b6000612522826123ea565b612561576040517f08c379a00000000000000000000000000000000000000000000000000000000081526004016125589061433f565b60405180910390fd5b600061256c83611521565b90508073ffffffffffffffffffffffffffffffffffffffff168473ffffffffffffffffffffffffffffffffffffffff1614806125ae57506125ad8185611fbf565b5b806125ec57508373ffffffffffffffffffffffffffffffffffffffff166125d484610943565b73ffffffffffffffffffffffffffffffffffffffff16145b91505092915050565b8273ffffffffffffffffffffffffffffffffffffffff1661261582611521565b73ffffffffffffffffffffffffffffffffffffffff161461266b576040517f08c379a0000000000000000000000000000000000000000000000000000000008152600401612662906142bf565b60405180910390fd5b600073ffffffffffffffffffffffffffffffffffffffff168273ffffffffffffffffffffffffffffffffffffffff1614156126db576040517f08c379a00000000000000000000000000000000000000000000000000000000081526004016126d2906142ff565b60405180910390fd5b6126e6838383612f92565b6126f160008261245e565b6001600360008573ffffffffffffffffffffffffffffffffffffffff1673ffffffffffffffffffffffffffffffffffffffff16815260200190815260200160002060008282546127419190614829565b925050819055506001600360008473ffffffffffffffffffffffffffffffffffffffff1673ffffffffffffffffffffffffffffffffffffffff16815260200190815260200160002060008282546127989190614748565b92505081905550816002600083815260200190815260200160002060006101000a81548173ffffffffffffffffffffffffffffffffffffffff021916908373ffffffffffffffffffffffffffffffffffffffff160217905550808273ffffffffffffffffffffffffffffffffffffffff168473ffffffffffffffffffffffffffffffffffffffff167fddf252ad1be2c89b69c2b068fc378daa952ba7f163c4a11628f55a4df523b3ef60405160405180910390a46128578383836130a6565b505050565b6000600a60009054906101000a900473ffffffffffffffffffffffffffffffffffffffff16905081600a60006101000a81548173ffffffffffffffffffffffffffffffffffffffff021916908373ffffffffffffffffffffffffffffffffffffffff1602179055508173ffffffffffffffffffffffffffffffffffffffff168173ffffffffffffffffffffffffffffffffffffffff167f8be0079c531659141344cd1fd0a4f28419497f9722a3daafe3b4186f6b6457e060405160405180910390a35050565b600081600001549050919050565b8173ffffffffffffffffffffffffffffffffffffffff168373ffffffffffffffffffffffffffffffffffffffff16141561299f576040517f08c379a00000000000000000000000000000000000000000000000000000000081526004016129969061431f565b60405180910390fd5b80600560008573ffffffffffffffffffffffffffffffffffffffff1673ffffffffffffffffffffffffffffffffffffffff16815260200190815260200160002060008473ffffffffffffffffffffffffffffffffffffffff1673ffffffffffffffffffffffffffffffffffffffff16815260200190815260200160002060006101000a81548160ff0219169083151502179055508173ffffffffffffffffffffffffffffffffffffffff168373ffffffffffffffffffffffffffffffffffffffff167f17307eab39ab6107e8899845ad3d59bd9653f200f220920489ca2b5937696c3183604051612a909190614222565b60405180910390a3505050565b612aa88484846125f5565b612ab4848484846130ab565b612af3576040517f08c379a0000000000000000000000000000000000000000000000000000000008152600401612aea9061427f565b60405180910390fd5b50505050565b6060600e8054612b0890614973565b80601f0160208091040260200160405190810160405280929190818152602001828054612b3490614973565b8015612b815780601f10612b5657610100808354040283529160200191612b81565b820191906000526020600020905b815481529060010190602001808311612b6457829003601f168201915b5050505050905090565b60606000821415612bd3576040518060400160405280600181526020017f30000000000000000000000000000000000000000000000000000000000000008152509050612d33565b600082905060005b60008214612c05578080612bee906149d6565b915050600a82612bfe919061479e565b9150612bdb565b60008167ffffffffffffffff811115612c47577f4e487b7100000000000000000000000000000000000000000000000000000000600052604160045260246000fd5b6040519080825280601f01601f191660200182016040528015612c795781602001600182028036833780820191505090505b5090505b60008514612d2c57600182612c929190614829565b9150600a85612ca19190614a1f565b6030612cad9190614748565b60f81b818381518110612ce9577f4e487b7100000000000000000000000000000000000000000000000000000000600052603260045260246000fd5b60200101907effffffffffffffffffffffffffffffffffffffffffffffffffffffffffffff1916908160001a905350600a85612d25919061479e565b9450612c7d565b8093505050505b919050565b6001816000016000828254019250508190555050565b600073ffffffffffffffffffffffffffffffffffffffff168273ffffffffffffffffffffffffffffffffffffffff161415612dbe576040517f08c379a0000000000000000000000000000000000000000000000000000000008152600401612db5906143ff565b60405180910390fd5b612dc7816123ea565b15612e07576040517f08c379a0000000000000000000000000000000000000000000000000000000008152600401612dfe906142df565b60405180910390fd5b612e1360008383612f92565b6001600360008473ffffffffffffffffffffffffffffffffffffffff1673ffffffffffffffffffffffffffffffffffffffff1681526020019081526020016000206000828254612e639190614748565b92505081905550816002600083815260200190815260200160002060006101000a81548173ffffffffffffffffffffffffffffffffffffffff021916908373ffffffffffffffffffffffffffffffffffffffff160217905550808273ffffffffffffffffffffffffffffffffffffffff16600073ffffffffffffffffffffffffffffffffffffffff167fddf252ad1be2c89b69c2b068fc378daa952ba7f163c4a11628f55a4df523b3ef60405160405180910390a4612f24600083836130a6565b5050565b60007f01ffc9a7000000000000000000000000000000000000000000000000000000007bffffffffffffffffffffffffffffffffffffffffffffffffffffffff1916827bffffffffffffffffffffffffffffffffffffffffffffffffffffffff1916149050919050565b612f9d838383613242565b600073ffffffffffffffffffffffffffffffffffffffff168373ffffffffffffffffffffffffffffffffffffffff161415612fe057612fdb81613247565b61301f565b8173ffffffffffffffffffffffffffffffffffffffff168373ffffffffffffffffffffffffffffffffffffffff161461301e5761301d8382613290565b5b5b600073ffffffffffffffffffffffffffffffffffffffff168273ffffffffffffffffffffffffffffffffffffffff1614156130625761305d816133fd565b6130a1565b8273ffffffffffffffffffffffffffffffffffffffff168273ffffffffffffffffffffffffffffffffffffffff16146130a05761309f8282613540565b5b5b505050565b505050565b60006130cc8473ffffffffffffffffffffffffffffffffffffffff166135bf565b15613235578373ffffffffffffffffffffffffffffffffffffffff1663150b7a026130f5612456565b8786866040518563ffffffff1660e01b815260040161311794939291906141b4565b602060405180830381600087803b15801561313157600080fd5b505af192505050801561316257506040513d601f19601f8201168201806040525081019061315f9190613a50565b60015b6131e5573d8060008114613192576040519150601f19603f3d011682016040523d82523d6000602084013e613197565b606091505b506000815114156131dd576040517f08c379a00000000000000000000000000000000000000000000000000000000081526004016131d49061427f565b60405180910390fd5b805181602001fd5b63150b7a0260e01b7bffffffffffffffffffffffffffffffffffffffffffffffffffffffff1916817bffffffffffffffffffffffffffffffffffffffffffffffffffffffff19161491505061323a565b600190505b949350505050565b505050565b6008805490506009600083815260200190815260200160002081905550600881908060018154018082558091505060019003906000526020600020016000909190919091505550565b6000600161329d846115d3565b6132a79190614829565b905060006007600084815260200190815260200160002054905081811461338c576000600660008673ffffffffffffffffffffffffffffffffffffffff1673ffffffffffffffffffffffffffffffffffffffff168152602001908152602001600020600084815260200190815260200160002054905080600660008773ffffffffffffffffffffffffffffffffffffffff1673ffffffffffffffffffffffffffffffffffffffff168152602001908152602001600020600084815260200190815260200160002081905550816007600083815260200190815260200160002081905550505b6007600084815260200190815260200160002060009055600660008573ffffffffffffffffffffffffffffffffffffffff1673ffffffffffffffffffffffffffffffffffffffff16815260200190815260200160002060008381526020019081526020016000206000905550505050565b600060016008805490506134119190614829565b9050600060096000848152602001908152602001600020549050600060088381548110613467577f4e487b7100000000000000000000000000000000000000000000000000000000600052603260045260246000fd5b9060005260206000200154905080600883815481106134af577f4e487b7100000000000000000000000000000000000000000000000000000000600052603260045260246000fd5b906000526020600020018190555081600960008381526020019081526020016000208190555060096000858152602001908152602001600020600090556008805480613524577f4e487b7100000000000000000000000000000000000000000000000000000000600052603160045260246000fd5b6001900381819060005260206000200160009055905550505050565b600061354b836115d3565b905081600660008573ffffffffffffffffffffffffffffffffffffffff1673ffffffffffffffffffffffffffffffffffffffff168152602001908152602001600020600083815260200190815260200160002081905550806007600084815260200190815260200160002081905550505050565b6000808273ffffffffffffffffffffffffffffffffffffffff163b119050919050565b8280546135ee90614973565b90600052602060002090601f0160209004810192826136105760008555613657565b82601f1061362957805160ff1916838001178555613657565b82800160010185558215613657579182015b8281111561365657825182559160200191906001019061363b565b5b50905061366491906136af565b5090565b6040518060a00160405280600081526020016060815260200160001515815260200160008152602001600073ffffffffffffffffffffffffffffffffffffffff1681525090565b5b808211156136c85760008160009055506001016136b0565b5090565b60006136df6136da84614659565b614634565b9050828152602081018484840111156136f757600080fd5b613702848285614907565b509392505050565b600061371d6137188461468a565b614634565b90508281526020810184848401111561373557600080fd5b613740848285614907565b509392505050565b600081359050613757816151f6565b92915050565b60008135905061376c8161520d565b92915050565b60008135905061378181615224565b92915050565b60008151905061379681615224565b92915050565b600082601f8301126137ad57600080fd5b81356137bd8482602086016136cc565b91505092915050565b600082601f8301126137d757600080fd5b81356137e784826020860161370a565b91505092915050565b6000813590506137ff8161523b565b92915050565b60006020828403121561381757600080fd5b600061382584828501613748565b91505092915050565b6000806040838503121561384157600080fd5b600061384f85828601613748565b925050602061386085828601613748565b9150509250929050565b60008060006060848603121561387f57600080fd5b600061388d86828701613748565b935050602061389e86828701613748565b92505060406138af868287016137f0565b9150509250925092565b600080600080608085870312156138cf57600080fd5b60006138dd87828801613748565b94505060206138ee87828801613748565b93505060406138ff878288016137f0565b925050606085013567ffffffffffffffff81111561391c57600080fd5b6139288782880161379c565b91505092959194509250565b6000806040838503121561394757600080fd5b600061395585828601613748565b92505060206139668582860161375d565b9150509250929050565b6000806000806080858703121561398657600080fd5b600061399487828801613748565b945050602085013567ffffffffffffffff8111156139b157600080fd5b6139bd878288016137c6565b93505060406139ce878288016137f0565b92505060606139df87828801613748565b91505092959194509250565b600080604083850312156139fe57600080fd5b6000613a0c85828601613748565b9250506020613a1d858286016137f0565b9150509250929050565b600060208284031215613a3957600080fd5b6000613a4784828501613772565b91505092915050565b600060208284031215613a6257600080fd5b6000613a7084828501613787565b91505092915050565b600060208284031215613a8b57600080fd5b600082013567ffffffffffffffff811115613aa557600080fd5b613ab1848285016137c6565b91505092915050565b600060208284031215613acc57600080fd5b6000613ada848285016137f0565b91505092915050565b60008060408385031215613af657600080fd5b6000613b04858286016137f0565b9250506020613b15858286016137f0565b9150509250929050565b6000613b2b8383614080565b905092915050565b613b3c816148d1565b82525050565b613b4b8161485d565b82525050565b613b5a8161485d565b82525050565b6000613b6b826146cb565b613b7581856146f9565b935083602082028501613b87856146bb565b8060005b85811015613bc35784840389528151613ba48582613b1f565b9450613baf836146ec565b925060208a01995050600181019050613b8b565b50829750879550505050505092915050565b613bde8161486f565b82525050565b613bed8161486f565b82525050565b6000613bfe826146d6565b613c08818561470a565b9350613c18818560208601614916565b613c2181614b0c565b840191505092915050565b6000613c37826146e1565b613c41818561471b565b9350613c51818560208601614916565b613c5a81614b0c565b840191505092915050565b6000613c70826146e1565b613c7a818561472c565b9350613c8a818560208601614916565b613c9381614b0c565b840191505092915050565b6000613ca9826146e1565b613cb3818561473d565b9350613cc3818560208601614916565b80840191505092915050565b6000613cdc602b8361472c565b9150613ce782614b1d565b604082019050919050565b6000613cff60328361472c565b9150613d0a82614b6c565b604082019050919050565b6000613d2260268361472c565b9150613d2d82614bbb565b604082019050919050565b6000613d4560258361472c565b9150613d5082614c0a565b604082019050919050565b6000613d68601c8361472c565b9150613d7382614c59565b602082019050919050565b6000613d8b60248361472c565b9150613d9682614c82565b604082019050919050565b6000613dae60198361472c565b9150613db982614cd1565b602082019050919050565b6000613dd1602c8361472c565b9150613ddc82614cfa565b604082019050919050565b6000613df460228361472c565b9150613dff82614d49565b604082019050919050565b6000613e17601e8361472c565b9150613e2282614d98565b602082019050919050565b6000613e3a60388361472c565b9150613e4582614dc1565b604082019050919050565b6000613e5d602a8361472c565b9150613e6882614e10565b604082019050919050565b6000613e8060298361472c565b9150613e8b82614e5f565b604082019050919050565b6000613ea360208361472c565b9150613eae82614eae565b602082019050919050565b6000613ec6602c8361472c565b9150613ed182614ed7565b604082019050919050565b6000613ee960208361472c565b9150613ef482614f26565b602082019050919050565b6000613f0c602f8361472c565b9150613f1782614f4f565b604082019050919050565b6000613f2f60378361472c565b9150613f3a82614f9e565b604082019050919050565b6000613f5260218361472c565b9150613f5d82614fed565b604082019050919050565b6000613f7560148361472c565b9150613f808261503c565b602082019050919050565b6000613f9860158361472c565b9150613fa382615065565b602082019050919050565b6000613fbb60128361472c565b9150613fc68261508e565b602082019050919050565b6000613fde60318361472c565b9150613fe9826150b7565b604082019050919050565b600061400160208361472c565b915061400c82615106565b602082019050919050565b6000614024602c8361472c565b915061402f8261512f565b604082019050919050565b600061404760168361472c565b91506140528261517e565b602082019050919050565b600061406a60268361472c565b9150614075826151a7565b604082019050919050565b600060a08301600083015161409860008601826140f6565b50602083015184820360208601526140b08282613c2c565b91505060408301516140c56040860182613bd5565b5060608301516140d860608601826140f6565b5060808301516140eb6080860182613b42565b508091505092915050565b6140ff816148c7565b82525050565b61410e816148c7565b82525050565b60006141208285613c9e565b915061412c8284613c9e565b91508190509392505050565b600060208201905061414d6000830184613b51565b92915050565b600060c0820190506141686000830189613b33565b6141756020830188614105565b6141826040830187613b33565b61418f6060830186614105565b61419c6080830185613b51565b6141a960a0830184614105565b979650505050505050565b60006080820190506141c96000830187613b51565b6141d66020830186613b51565b6141e36040830185614105565b81810360608301526141f58184613bf3565b905095945050505050565b6000602082019050818103600083015261421a8184613b60565b905092915050565b60006020820190506142376000830184613be4565b92915050565b600060208201905081810360008301526142578184613c65565b905092915050565b6000602082019050818103600083015261427881613ccf565b9050919050565b6000602082019050818103600083015261429881613cf2565b9050919050565b600060208201905081810360008301526142b881613d15565b9050919050565b600060208201905081810360008301526142d881613d38565b9050919050565b600060208201905081810360008301526142f881613d5b565b9050919050565b6000602082019050818103600083015261431881613d7e565b9050919050565b6000602082019050818103600083015261433881613da1565b9050919050565b6000602082019050818103600083015261435881613dc4565b9050919050565b6000602082019050818103600083015261437881613de7565b9050919050565b6000602082019050818103600083015261439881613e0a565b9050919050565b600060208201905081810360008301526143b881613e2d565b9050919050565b600060208201905081810360008301526143d881613e50565b9050919050565b600060208201905081810360008301526143f881613e73565b9050919050565b6000602082019050818103600083015261441881613e96565b9050919050565b6000602082019050818103600083015261443881613eb9565b9050919050565b6000602082019050818103600083015261445881613edc565b9050919050565b6000602082019050818103600083015261447881613eff565b9050919050565b6000602082019050818103600083015261449881613f22565b9050919050565b600060208201905081810360008301526144b881613f45565b9050919050565b600060208201905081810360008301526144d881613f68565b9050919050565b600060208201905081810360008301526144f881613f8b565b9050919050565b6000602082019050818103600083015261451881613fae565b9050919050565b6000602082019050818103600083015261453881613fd1565b9050919050565b6000602082019050818103600083015261455881613ff4565b9050919050565b6000602082019050818103600083015261457881614017565b9050919050565b600060208201905081810360008301526145988161403a565b9050919050565b600060208201905081810360008301526145b88161405d565b9050919050565b60006020820190506145d46000830184614105565b92915050565b600060a0820190506145ef6000830188614105565b81810360208301526146018187613c65565b90506146106040830186613be4565b61461d6060830185614105565b61462a6080830184613b51565b9695505050505050565b600061463e61464f565b905061464a82826149a5565b919050565b6000604051905090565b600067ffffffffffffffff82111561467457614673614add565b5b61467d82614b0c565b9050602081019050919050565b600067ffffffffffffffff8211156146a5576146a4614add565b5b6146ae82614b0c565b9050602081019050919050565b6000819050602082019050919050565b600081519050919050565b600081519050919050565b600081519050919050565b6000602082019050919050565b600082825260208201905092915050565b600082825260208201905092915050565b600082825260208201905092915050565b600082825260208201905092915050565b600081905092915050565b6000614753826148c7565b915061475e836148c7565b9250827fffffffffffffffffffffffffffffffffffffffffffffffffffffffffffffffff0382111561479357614792614a50565b5b828201905092915050565b60006147a9826148c7565b91506147b4836148c7565b9250826147c4576147c3614a7f565b5b828204905092915050565b60006147da826148c7565b91506147e5836148c7565b9250817fffffffffffffffffffffffffffffffffffffffffffffffffffffffffffffffff048311821515161561481e5761481d614a50565b5b828202905092915050565b6000614834826148c7565b915061483f836148c7565b92508282101561485257614851614a50565b5b828203905092915050565b6000614868826148a7565b9050919050565b60008115159050919050565b60007fffffffff0000000000000000000000000000000000000000000000000000000082169050919050565b600073ffffffffffffffffffffffffffffffffffffffff82169050919050565b6000819050919050565b60006148dc826148e3565b9050919050565b60006148ee826148f5565b9050919050565b6000614900826148a7565b9050919050565b82818337600083830152505050565b60005b83811015614934578082015181840152602081019050614919565b83811115614943576000848401525b50505050565b6000614954826148c7565b9150600082141561496857614967614a50565b5b600182039050919050565b6000600282049050600182168061498b57607f821691505b6020821081141561499f5761499e614aae565b5b50919050565b6149ae82614b0c565b810181811067ffffffffffffffff821117156149cd576149cc614add565b5b80604052505050565b60006149e1826148c7565b91507fffffffffffffffffffffffffffffffffffffffffffffffffffffffffffffffff821415614a1457614a13614a50565b5b600182019050919050565b6000614a2a826148c7565b9150614a35836148c7565b925082614a4557614a44614a7f565b5b828206905092915050565b7f4e487b7100000000000000000000000000000000000000000000000000000000600052601160045260246000fd5b7f4e487b7100000000000000000000000000000000000000000000000000000000600052601260045260246000fd5b7f4e487b7100000000000000000000000000000000000000000000000000000000600052602260045260246000fd5b7f4e487b7100000000000000000000000000000000000000000000000000000000600052604160045260246000fd5b6000601f19601f8301169050919050565b7f455243373231456e756d657261626c653a206f776e657220696e646578206f7560008201527f74206f6620626f756e6473000000000000000000000000000000000000000000602082015250565b7f4552433732313a207472616e7366657220746f206e6f6e20455243373231526560008201527f63656976657220696d706c656d656e7465720000000000000000000000000000602082015250565b7f4f776e61626c653a206e6577206f776e657220697320746865207a65726f206160008201527f6464726573730000000000000000000000000000000000000000000000000000602082015250565b7f4552433732313a207472616e736665722066726f6d20696e636f72726563742060008201527f6f776e6572000000000000000000000000000000000000000000000000000000602082015250565b7f4552433732313a20746f6b656e20616c7265616479206d696e74656400000000600082015250565b7f4552433732313a207472616e7366657220746f20746865207a65726f2061646460008201527f7265737300000000000000000000000000000000000000000000000000000000602082015250565b7f4552433732313a20617070726f766520746f2063616c6c657200000000000000600082015250565b7f4552433732313a206f70657261746f7220717565727920666f72206e6f6e657860008201527f697374656e7420746f6b656e0000000000000000000000000000000000000000602082015250565b7f6f6e6c79204e465420746f6b656e206f776e65722063616e20726573656c6c2060008201527f6974000000000000000000000000000000000000000000000000000000000000602082015250565b7f546f6b656e20646f65736e27742062656c6f6e6720746f2063616c6c65720000600082015250565b7f4552433732313a20617070726f76652063616c6c6572206973206e6f74206f7760008201527f6e6572206e6f7220617070726f76656420666f7220616c6c0000000000000000602082015250565b7f4552433732313a2062616c616e636520717565727920666f7220746865207a6560008201527f726f206164647265737300000000000000000000000000000000000000000000602082015250565b7f4552433732313a206f776e657220717565727920666f72206e6f6e657869737460008201527f656e7420746f6b656e0000000000000000000000000000000000000000000000602082015250565b7f4552433732313a206d696e7420746f20746865207a65726f2061646472657373600082015250565b7f4552433732313a20617070726f76656420717565727920666f72206e6f6e657860008201527f697374656e7420746f6b656e0000000000000000000000000000000000000000602082015250565b7f4f776e61626c653a2063616c6c6572206973206e6f7420746865206f776e6572600082015250565b7f4552433732314d657461646174613a2055524920717565727920666f72206e6f60008201527f6e6578697374656e7420746f6b656e0000000000000000000000000000000000602082015250565b7f6f6e6c7920746f6b656e206f776e65722063616e2064697361626c65206e667460008201527f20746f6b656e2066726f6d206d61726b6574706c616365000000000000000000602082015250565b7f4552433732313a20617070726f76616c20746f2063757272656e74206f776e6560008201527f7200000000000000000000000000000000000000000000000000000000000000602082015250565b7f746f6b656e206973206e6f74206f6e2073616c65000000000000000000000000600082015250565b7f6e6f6e206578697374696e6720746f6b656e2069640000000000000000000000600082015250565b7f696e73756666696369656e742066756e64730000000000000000000000000000600082015250565b7f4552433732313a207472616e736665722063616c6c6572206973206e6f74206f60008201527f776e6572206e6f7220617070726f766564000000000000000000000000000000602082015250565b7f6f6e6c7920636f6e7472616374206f776e65722063616e206d696e74204e4654600082015250565b7f455243373231456e756d657261626c653a20676c6f62616c20696e646578206f60008201527f7574206f6620626f756e64730000000000000000000000000000000000000000602082015250565b7f546f6b656e20696420646f65736e277420657869737400000000000000000000600082015250565b7f4e465420746f6b656e2070726963652073686f756c642062652073657420686960008201527f6768657220300000000000000000000000000000000000000000000000000000602082015250565b6151ff8161485d565b811461520a57600080fd5b50565b6152168161486f565b811461522157600080fd5b50565b61522d8161487b565b811461523857600080fd5b50565b615244816148c7565b811461524f57600080fd5b5056fea26469706673582212204789850052d5f001135ba2ec93063602e6ee20f46eb19c9ae8d88287b925bd1364736f6c6343000801003368747470733a2f2f646635322d3139342d34342d39392d3138382e6e67726f6b2e696f2f6170692f6e6674732f",
  "immutableReferences": {},
  "source": "// SPDX-License-Identifier: MIT\npragma solidity >=0.4.22 <0.9.0;\nimport \"@openzeppelin/contracts/token/ERC721/ERC721.sol\";\nimport \"@openzeppelin/contracts/token/ERC721/extensions/ERC721Enumerable.sol\";\nimport \"@openzeppelin/contracts/utils/Counters.sol\";\nimport \"@openzeppelin/contracts/access/Ownable.sol\";\n\ncontract MarketPlace is ERC721Enumerable, Ownable {\n  using Counters for Counters.Counter;\n\n  // tokens counter\n  Counters.Counter public _tokenIds;\n\n  // contract owner\n  address public contractOwner;\n\n  // number of tokens we have on sale\n  uint256 public nTokenOnSale;\n\n  // tokens data which represents nft token\n  struct tokenData {\n    uint256 price;\n    string data;\n    bool onSale;\n    uint256 tokenID;\n    address creator;\n  }\n\n  /// @dev Base token URI used as a prefix by tokenURI().\n  string public baseTokenURI;\n\n  // mapping of token's info token -> token info\n  mapping(uint256 => tokenData) public tokensData;\n\n  constructor() ERC721(\"MarketPlace\", \"MPE\") {\n    contractOwner = msg.sender;\n    baseTokenURI = \"https://df52-194-44-99-188.ngrok.io/api/nfts/\";\n  }\n\n  /// @dev Returns an URI for a given token ID\n  function _baseURI() internal view virtual override returns (string memory) {\n    return baseTokenURI;\n  }\n\n  /// @dev Sets the base token URI prefix.\n  function setBaseTokenURI(string memory _baseTokenURI) public onlyOwner {\n    baseTokenURI = _baseTokenURI;\n  }\n\n  /**\n  Mint new NFT token\n  @param receptor {address} to whom we mint NFT token\n  @param metadata    {string} configuration json for NFT creation (all NFT metadata here)\n  @param price    {uint256} the price in weis\n  @return {uint256} returns newly created NFT\n  */\n  function mint(\n    address receptor,\n    string memory metadata,\n    uint256 price,\n    address creator\n  ) public returns (uint256) {\n    // only contract owner can mint NFTs\n    // contract owner can mint NFTs for other users as well using creator param \n    require(\n      msg.sender == contractOwner,\n      \"only contract owner can mint NFT\"\n    );\n\n    // get latest created nft\n    uint256 newItemId = _tokenIds.current();\n\n    // increment token number\n    _tokenIds.increment();\n\n    // mint new nft token\n    _mint(receptor, newItemId);\n\n    // aggregate all metadata for token\n    tokensData[newItemId].data = metadata;\n    tokensData[newItemId].price = price;\n    tokensData[newItemId].onSale = true;\n    tokensData[newItemId].tokenID = newItemId;\n    tokensData[newItemId].creator = creator;\n\n    // change number of tokens we have on sale now\n    nTokenOnSale++;\n    return newItemId;\n  }\n\n  /**\n    Transfer NFT from one account to another\n    @param to {address} to whom we need to transfer NFT token\n    @param tokenId {uint256} NFT token id we gonna transfer\n    @return {addresss} returns address to whom we transfered NFT\n  */\n  function transferNFT(address to, uint256 tokenId) public returns (address) {\n    require(_exists(tokenId), \"Token id doesn't exist\");\n    require(\n      msg.sender == ownerOf(tokenId),\n      \"Token doesn't belong to caller\"\n    );\n\n    // perform transfer to `to` address of token `tokenId`\n    safeTransferFrom(msg.sender, to, tokenId);\n\n    // return address of new token owner\n    return to;\n  }\n\n  /**\n    resell NFT token on martketplace\n    *@param tokenid {uint256} NFT token we gonna resell\n    *@param price  {uint256} new price we put for this token\n    */\n  function resell(uint256 tokenid, uint256 price) public {\n    require(\n        ownerOf(tokenid) == msg.sender,\n        \"only NFT token owner can resell it\"\n    );\n    require(price > 0, \"NFT token price should be set higher 0\");\n    tokensData[tokenid].onSale = true;\n    tokensData[tokenid].price = price;\n    nTokenOnSale++;\n  }\n\n  /**\n    * disables NFT token from marketplace, it cannot be sold or shown on marketplace\n    *@param tokenid {uint256} tokenid representa el token al cual afectar\n    */\n  function hideNFTFromMarketplace(uint256 tokenid) public {\n    // check if caller is token owner\n    require(\n      ownerOf(tokenid) == msg.sender,\n      \"only token owner can disable nft token from marketplace\"\n    );\n\n    // check if token id is in proper range\n    require(\n      tokenid < _tokenIds.current(),\n      \"non existing token id\"\n    );\n\n    tokensData[tokenid].onSale = false;\n    nTokenOnSale--;\n  }\n\n  /**\n    * lists all available NFTs\n    *@return tokenData[] list with all NFTs\n    */\n  function listAllNFTs() public view returns (tokenData[] memory) {\n    // get number of tokens\n    uint256 nTokens = _tokenIds.current();\n    // prepare list for NFTs\n    tokenData[] memory onSaleTokensData = new tokenData[](nTokens);\n    // pull NFTs one by one into NFT array\n    for (uint256 index = 0; index < nTokens; index++) {\n        onSaleTokensData[index] = tokensData[index];\n    }\n\n    // return list of NFTs\n    return onSaleTokensData;\n  }\n\n  event buyed(\n    address tokenon,\n    uint256 payout,\n    address tokencre,\n    uint256 reg,\n    address mpowner,\n    uint256 gains\n  );\n\n  /**\n    buy NFT token\n    *@param tokenId {uint256} NFT token id user can buy\n    */\n  function buyNFT(uint256 tokenId) public payable {\n    // check if user has enough funds\n    require(msg.value == tokensData[tokenId].price, \"insufficient funds\");\n\n    // token has to be on sale to be sold\n    require(\n        tokensData[tokenId].onSale,\n        \"token is not on sale\"\n    );\n\n    // set payable for token owner\n    address payable tokenOwner = payable(ownerOf(tokenId));\n    // set payable for token creator (take creator address from nft token)\n    address payable tokenCreator = payable(tokensData[tokenId].creator);\n\n    // send NFT token to the buyer\n    _transfer(tokenOwner, msg.sender, tokenId);\n\n    // calculates fees for token owner / creator / contract owner\n    uint256 royalty = msg.value * 4 / 100;\n    uint256 gains = msg.value * 2 / 100;\n    uint256 payout = msg.value * 94 / 100;\n\n    // send main amount to NFT token owner (major part of amount)\n    tokenOwner.transfer(payout);\n\n    // send royalty to token creator\n    tokenCreator.transfer(royalty);\n\n    // send gains (how much on fee we earned) to contract owner\n    payable(contractOwner).transfer(gains);\n\n    // take NFT token from sale\n    tokensData[tokenId].onSale = false;\n    emit buyed(\n      tokenOwner,\n      payout,\n      tokenCreator,\n      royalty,\n      contractOwner,\n      gains\n    );\n    nTokenOnSale--;\n  }\n\n  /**\n    * @param owner {address} address of tokens owner\n    * @return tokenData[] list of tokens info which owner owns\n    */\n  function tokensOf(address owner) public view returns (tokenData[] memory) {\n    // how many tokens adderss has \n    uint256 nTokens = balanceOf(owner);\n    if (nTokens == 0) {\n      return (new tokenData[](nTokens));\n    }\n\n    // initialize array of tokens for responding with list of nfts per address it owns\n    tokenData[] memory userTokens = new tokenData[](nTokens);\n\n    for (uint256 i = 0; i < nTokens; i++) {\n      // collect token info by token owner and save into the list\n      userTokens[i] = tokensData[tokenOfOwnerByIndex(owner, i)];\n    }\n    \n    // return list of tokens data\n    return (userTokens);\n  }\n\n  // gets all NFT token info by token id\n  function getItemInfo(uint256 _token)\n    public\n    view\n    returns (tokenData[] memory)\n  {\n    tokenData[] memory getone = new tokenData[](1);\n    getone[0] = tokensData[_token];\n    return getone;\n  }\n}\n",
  "sourcePath": "/Users/klaus/ideas-nft/blockchain/smart_contracts/aurora/contracts/MarketPlace.sol",
  "compiler": {
    "name": "solc",
    "version": "0.8.1+commit.df193b15.Emscripten.clang"
  },
  "schemaVersion": "3.4.7",
  "updatedAt": "2022-06-01T22:51:38.817Z",
  "networkType": "ethereum",
  "devdoc": {
    "kind": "dev",
    "methods": {
      "approve(address,uint256)": {
        "details": "See {IERC721-approve}."
      },
      "balanceOf(address)": {
        "details": "See {IERC721-balanceOf}."
      },
      "buyNFT(uint256)": {
        "params": {
          "tokenId": "{uint256} NFT token id user can buy"
        }
      },
      "getApproved(uint256)": {
        "details": "See {IERC721-getApproved}."
      },
      "hideNFTFromMarketplace(uint256)": {
        "params": {
          "tokenid": "{uint256} tokenid representa el token al cual afectar"
        }
      },
      "isApprovedForAll(address,address)": {
        "details": "See {IERC721-isApprovedForAll}."
      },
      "listAllNFTs()": {
        "returns": {
          "_0": "tokenData[] list with all NFTs"
        }
      },
      "mint(address,string,uint256,address)": {
        "params": {
          "metadata": "{string} configuration json for NFT creation (all NFT metadata here)",
          "price": "{uint256} the price in weis",
          "receptor": "{address} to whom we mint NFT token"
        },
        "returns": {
          "_0": "{uint256} returns newly created NFT"
        }
      },
      "name()": {
        "details": "See {IERC721Metadata-name}."
      },
      "owner()": {
        "details": "Returns the address of the current owner."
      },
      "ownerOf(uint256)": {
        "details": "See {IERC721-ownerOf}."
      },
      "renounceOwnership()": {
        "details": "Leaves the contract without owner. It will not be possible to call `onlyOwner` functions anymore. Can only be called by the current owner. NOTE: Renouncing ownership will leave the contract without an owner, thereby removing any functionality that is only available to the owner."
      },
      "resell(uint256,uint256)": {
        "params": {
          "price": "{uint256} new price we put for this token",
          "tokenid": "{uint256} NFT token we gonna resell"
        }
      },
      "safeTransferFrom(address,address,uint256)": {
        "details": "See {IERC721-safeTransferFrom}."
      },
      "safeTransferFrom(address,address,uint256,bytes)": {
        "details": "See {IERC721-safeTransferFrom}."
      },
      "setApprovalForAll(address,bool)": {
        "details": "See {IERC721-setApprovalForAll}."
      },
      "setBaseTokenURI(string)": {
        "details": "Sets the base token URI prefix."
      },
      "supportsInterface(bytes4)": {
        "details": "See {IERC165-supportsInterface}."
      },
      "symbol()": {
        "details": "See {IERC721Metadata-symbol}."
      },
      "tokenByIndex(uint256)": {
        "details": "See {IERC721Enumerable-tokenByIndex}."
      },
      "tokenOfOwnerByIndex(address,uint256)": {
        "details": "See {IERC721Enumerable-tokenOfOwnerByIndex}."
      },
      "tokenURI(uint256)": {
        "details": "See {IERC721Metadata-tokenURI}."
      },
      "tokensOf(address)": {
        "params": {
          "owner": "{address} address of tokens owner"
        },
        "returns": {
          "_0": "tokenData[] list of tokens info which owner owns"
        }
      },
      "totalSupply()": {
        "details": "See {IERC721Enumerable-totalSupply}."
      },
      "transferFrom(address,address,uint256)": {
        "details": "See {IERC721-transferFrom}."
      },
      "transferNFT(address,uint256)": {
        "params": {
          "to": "{address} to whom we need to transfer NFT token",
          "tokenId": "{uint256} NFT token id we gonna transfer"
        },
        "returns": {
          "_0": "{addresss} returns address to whom we transfered NFT"
        }
      },
      "transferOwnership(address)": {
        "details": "Transfers ownership of the contract to a new account (`newOwner`). Can only be called by the current owner."
      }
    },
    "stateVariables": {
      "baseTokenURI": {
        "details": "Base token URI used as a prefix by tokenURI()."
      }
    },
    "version": 1
  },
  "userdoc": {
    "kind": "user",
    "methods": {
      "buyNFT(uint256)": {
        "notice": "buy NFT token"
      },
      "hideNFTFromMarketplace(uint256)": {
        "notice": "disables NFT token from marketplace, it cannot be sold or shown on marketplace"
      },
      "listAllNFTs()": {
        "notice": "lists all available NFTs"
      },
      "mint(address,string,uint256,address)": {
        "notice": "Mint new NFT token"
      },
      "resell(uint256,uint256)": {
        "notice": "resell NFT token on martketplace"
      },
      "transferNFT(address,uint256)": {
        "notice": "Transfer NFT from one account to another"
      }
    },
    "version": 1
  }
}